{
  "contractName": "ERC721Metadata",
  "abi": [
    {
      "constant": true,
      "inputs": [
        {
          "name": "interfaceId",
          "type": "bytes4"
        }
      ],
      "name": "supportsInterface",
      "outputs": [
        {
          "name": "",
          "type": "bool"
        }
      ],
      "payable": false,
      "stateMutability": "view",
      "type": "function"
    },
    {
      "constant": true,
      "inputs": [
        {
          "name": "tokenId",
          "type": "uint256"
        }
      ],
      "name": "getApproved",
      "outputs": [
        {
          "name": "",
          "type": "address"
        }
      ],
      "payable": false,
      "stateMutability": "view",
      "type": "function"
    },
    {
      "constant": false,
      "inputs": [
        {
          "name": "to",
          "type": "address"
        },
        {
          "name": "tokenId",
          "type": "uint256"
        }
      ],
      "name": "approve",
      "outputs": [],
      "payable": false,
      "stateMutability": "nonpayable",
      "type": "function"
    },
    {
      "constant": true,
      "inputs": [],
      "name": "totalSupply",
      "outputs": [
        {
          "name": "",
          "type": "uint256"
        }
      ],
      "payable": false,
      "stateMutability": "view",
      "type": "function"
    },
    {
      "constant": false,
      "inputs": [
        {
          "name": "from",
          "type": "address"
        },
        {
          "name": "to",
          "type": "address"
        },
        {
          "name": "tokenId",
          "type": "uint256"
        }
      ],
      "name": "transferFrom",
      "outputs": [],
      "payable": false,
      "stateMutability": "nonpayable",
      "type": "function"
    },
    {
      "constant": false,
      "inputs": [
        {
          "name": "_myid",
          "type": "bytes32"
        },
        {
          "name": "_result",
          "type": "string"
        }
      ],
      "name": "__callback",
      "outputs": [],
      "payable": false,
      "stateMutability": "nonpayable",
      "type": "function"
    },
    {
      "constant": true,
      "inputs": [
        {
          "name": "owner",
          "type": "address"
        },
        {
          "name": "index",
          "type": "uint256"
        }
      ],
      "name": "tokenOfOwnerByIndex",
      "outputs": [
        {
          "name": "",
          "type": "uint256"
        }
      ],
      "payable": false,
      "stateMutability": "view",
      "type": "function"
    },
    {
      "constant": false,
      "inputs": [
        {
          "name": "_myid",
          "type": "bytes32"
        },
        {
          "name": "_result",
          "type": "string"
        },
        {
          "name": "_proof",
          "type": "bytes"
        }
      ],
      "name": "__callback",
      "outputs": [],
      "payable": false,
      "stateMutability": "nonpayable",
      "type": "function"
    },
    {
      "constant": false,
      "inputs": [],
      "name": "unpause",
      "outputs": [],
      "payable": false,
      "stateMutability": "nonpayable",
      "type": "function"
    },
    {
      "constant": false,
      "inputs": [
        {
          "name": "from",
          "type": "address"
        },
        {
          "name": "to",
          "type": "address"
        },
        {
          "name": "tokenId",
          "type": "uint256"
        }
      ],
      "name": "safeTransferFrom",
      "outputs": [],
      "payable": false,
      "stateMutability": "nonpayable",
      "type": "function"
    },
    {
      "constant": true,
      "inputs": [
        {
          "name": "index",
          "type": "uint256"
        }
      ],
      "name": "tokenByIndex",
      "outputs": [
        {
          "name": "",
          "type": "uint256"
        }
      ],
      "payable": false,
      "stateMutability": "view",
      "type": "function"
    },
    {
      "constant": true,
      "inputs": [
        {
          "name": "tokenId",
          "type": "uint256"
        }
      ],
      "name": "ownerOf",
      "outputs": [
        {
          "name": "",
          "type": "address"
        }
      ],
      "payable": false,
      "stateMutability": "view",
      "type": "function"
    },
    {
      "constant": true,
      "inputs": [
        {
          "name": "owner",
          "type": "address"
        }
      ],
      "name": "balanceOf",
      "outputs": [
        {
          "name": "",
          "type": "uint256"
        }
      ],
      "payable": false,
      "stateMutability": "view",
      "type": "function"
    },
    {
      "constant": false,
      "inputs": [],
      "name": "pause",
      "outputs": [],
      "payable": false,
      "stateMutability": "nonpayable",
      "type": "function"
    },
    {
      "constant": true,
      "inputs": [],
      "name": "getCurrentOwner",
      "outputs": [
        {
          "name": "",
          "type": "address"
        }
      ],
      "payable": false,
      "stateMutability": "view",
      "type": "function"
    },
    {
      "constant": false,
      "inputs": [
        {
          "name": "to",
          "type": "address"
        },
        {
          "name": "approved",
          "type": "bool"
        }
      ],
      "name": "setApprovalForAll",
      "outputs": [],
      "payable": false,
      "stateMutability": "nonpayable",
      "type": "function"
    },
    {
      "constant": false,
      "inputs": [
        {
          "name": "from",
          "type": "address"
        },
        {
          "name": "to",
          "type": "address"
        },
        {
          "name": "tokenId",
          "type": "uint256"
        },
        {
          "name": "_data",
          "type": "bytes"
        }
      ],
      "name": "safeTransferFrom",
      "outputs": [],
      "payable": false,
      "stateMutability": "nonpayable",
      "type": "function"
    },
    {
      "constant": true,
      "inputs": [
        {
          "name": "owner",
          "type": "address"
        },
        {
          "name": "operator",
          "type": "address"
        }
      ],
      "name": "isApprovedForAll",
      "outputs": [
        {
          "name": "",
          "type": "bool"
        }
      ],
      "payable": false,
      "stateMutability": "view",
      "type": "function"
    },
    {
      "constant": false,
      "inputs": [
        {
          "name": "newOwner",
          "type": "address"
        }
      ],
      "name": "transferOwnership",
      "outputs": [],
      "payable": false,
      "stateMutability": "nonpayable",
      "type": "function"
    },
    {
      "inputs": [
        {
          "name": "name",
          "type": "string"
        },
        {
          "name": "symbol",
          "type": "string"
        },
        {
          "name": "baseTokenURI",
          "type": "string"
        }
      ],
      "payable": false,
      "stateMutability": "nonpayable",
      "type": "constructor"
    },
    {
      "anonymous": false,
      "inputs": [
        {
          "indexed": true,
          "name": "from",
          "type": "address"
        },
        {
          "indexed": true,
          "name": "to",
          "type": "address"
        },
        {
          "indexed": true,
          "name": "tokenId",
          "type": "uint256"
        }
      ],
      "name": "Transfer",
      "type": "event"
    },
    {
      "anonymous": false,
      "inputs": [
        {
          "indexed": true,
          "name": "owner",
          "type": "address"
        },
        {
          "indexed": true,
          "name": "approved",
          "type": "address"
        },
        {
          "indexed": true,
          "name": "tokenId",
          "type": "uint256"
        }
      ],
      "name": "Approval",
      "type": "event"
    },
    {
      "anonymous": false,
      "inputs": [
        {
          "indexed": true,
          "name": "owner",
          "type": "address"
        },
        {
          "indexed": true,
          "name": "operator",
          "type": "address"
        },
        {
          "indexed": false,
          "name": "approved",
          "type": "bool"
        }
      ],
      "name": "ApprovalForAll",
      "type": "event"
    },
    {
      "anonymous": false,
      "inputs": [
        {
          "indexed": false,
          "name": "account",
          "type": "address"
        }
      ],
      "name": "Paused",
      "type": "event"
    },
    {
      "anonymous": false,
      "inputs": [
        {
          "indexed": false,
          "name": "account",
          "type": "address"
        }
      ],
      "name": "Unpaused",
      "type": "event"
    },
    {
      "anonymous": false,
      "inputs": [
        {
          "indexed": true,
          "name": "previousOwner",
          "type": "address"
        },
        {
          "indexed": true,
          "name": "newOwner",
          "type": "address"
        }
      ],
      "name": "OwnershipTransferred",
      "type": "event"
    },
    {
      "constant": true,
      "inputs": [],
      "name": "name",
      "outputs": [
        {
          "name": "",
          "type": "string"
        }
      ],
      "payable": false,
      "stateMutability": "view",
      "type": "function"
    },
    {
      "constant": true,
      "inputs": [],
      "name": "symbol",
      "outputs": [
        {
          "name": "",
          "type": "string"
        }
      ],
      "payable": false,
      "stateMutability": "view",
      "type": "function"
    },
    {
      "constant": true,
      "inputs": [],
      "name": "baseTokenURI",
      "outputs": [
        {
          "name": "",
          "type": "string"
        }
      ],
      "payable": false,
      "stateMutability": "view",
      "type": "function"
    },
    {
      "constant": true,
      "inputs": [
        {
          "name": "tokenId",
          "type": "uint256"
        }
      ],
      "name": "tokenURI",
      "outputs": [
        {
          "name": "",
          "type": "string"
        }
      ],
      "payable": false,
      "stateMutability": "view",
      "type": "function"
    }
  ],
  "bytecode": "0x60806040523480156200001157600080fd5b50604051620029b7380380620029b7833981018060405260608110156200003757600080fd5b8101908080516401000000008111156200005057600080fd5b828101905060208101848111156200006757600080fd5b81518560018202830111640100000000821117156200008557600080fd5b50509291906020018051640100000000811115620000a257600080fd5b82810190506020810184811115620000b957600080fd5b8151856001820283011164010000000082111715620000d757600080fd5b50509291906020018051640100000000811115620000f457600080fd5b828101905060208101848111156200010b57600080fd5b81518560018202830111640100000000821117156200012957600080fd5b5050929190505050336000806101000a81548173ffffffffffffffffffffffffffffffffffffffff021916908373ffffffffffffffffffffffffffffffffffffffff1602179055506000809054906101000a900473ffffffffffffffffffffffffffffffffffffffff1673ffffffffffffffffffffffffffffffffffffffff16600073ffffffffffffffffffffffffffffffffffffffff167f8be0079c531659141344cd1fd0a4f28419497f9722a3daafe3b4186f6b6457e060405160405180910390a360008060146101000a81548160ff021916908315150217905550620002446301ffc9a77c0100000000000000000000000000000000000000000000000000000000026200034f640100000000026401000000009004565b620002816380ac58cd7c0100000000000000000000000000000000000000000000000000000000026200034f640100000000026401000000009004565b620002be63780e9d637c0100000000000000000000000000000000000000000000000000000000026200034f640100000000026401000000009004565b82600f9080519060200190620002d69291906200040d565b508160109080519060200190620002ef9291906200040d565b508060119080519060200190620003089291906200040d565b5062000346635b5e139f7c0100000000000000000000000000000000000000000000000000000000026200034f640100000000026401000000009004565b505050620004bc565b63ffffffff7c010000000000000000000000000000000000000000000000000000000002817bffffffffffffffffffffffffffffffffffffffffffffffffffffffff191614151515620003a157600080fd5b6001806000837bffffffffffffffffffffffffffffffffffffffffffffffffffffffff19167bffffffffffffffffffffffffffffffffffffffffffffffffffffffff1916815260200190815260200160002060006101000a81548160ff02191690831515021790555050565b828054600181600116156101000203166002900490600052602060002090601f016020900481019282601f106200045057805160ff191683800117855562000481565b8280016001018555821562000481579182015b828111156200048057825182559160200191906001019062000463565b5b50905062000490919062000494565b5090565b620004b991905b80821115620004b55760008160009055506001016200049b565b5090565b90565b6124eb80620004cc6000396000f3fe608060405234801561001057600080fd5b506004361061016a576000357c0100000000000000000000000000000000000000000000000000000000900480634f6ccce7116100e0578063a22cb46511610099578063a22cb46514610879578063b88d4fde146108c9578063c87b56dd146109ce578063d547cfb714610a75578063e985e9c514610af8578063f2fde38b14610b745761016a565b80634f6ccce71461069a5780636352211e146106dc57806370a082311461074a5780638456cb59146107a257806395d89b41146107ac578063a18a186b1461082f5761016a565b806323b872dd1161013257806323b872dd1461033157806327dc297e1461039f5780632f745c591461046457806338bbfa50146104c65780633f4ba83a1461062257806342842e0e1461062c5761016a565b806301ffc9a71461016f57806306fdde03146101d4578063081812fc14610257578063095ea7b3146102c557806318160ddd14610313575b600080fd5b6101ba6004803603602081101561018557600080fd5b8101908080357bffffffffffffffffffffffffffffffffffffffffffffffffffffffff19169060200190929190505050610bb8565b604051808215151515815260200191505060405180910390f35b6101dc610c20565b6040518080602001828103825283818151815260200191508051906020019080838360005b8381101561021c578082015181840152602081019050610201565b50505050905090810190601f1680156102495780820380516001836020036101000a031916815260200191505b509250505060405180910390f35b6102836004803603602081101561026d57600080fd5b8101908080359060200190929190505050610cc2565b604051808273ffffffffffffffffffffffffffffffffffffffff1673ffffffffffffffffffffffffffffffffffffffff16815260200191505060405180910390f35b610311600480360360408110156102db57600080fd5b81019080803573ffffffffffffffffffffffffffffffffffffffff16906020019092919080359060200190929190505050610d13565b005b61031b610f2d565b6040518082815260200191505060405180910390f35b61039d6004803603606081101561034757600080fd5b81019080803573ffffffffffffffffffffffffffffffffffffffff169060200190929190803573ffffffffffffffffffffffffffffffffffffffff16906020019092919080359060200190929190505050610f3a565b005b610462600480360360408110156103b557600080fd5b8101908080359060200190929190803590602001906401000000008111156103dc57600080fd5b8201836020820111156103ee57600080fd5b8035906020019184600183028401116401000000008311171561041057600080fd5b91908080601f016020809104026020016040519081016040528093929190818152602001838380828437600081840152601f19601f820116905080830192505050505050509192919290505050610f5f565b005b6104b06004803603604081101561047a57600080fd5b81019080803573ffffffffffffffffffffffffffffffffffffffff16906020019092919080359060200190929190505050610fa2565b6040518082815260200191505060405180910390f35b610620600480360360608110156104dc57600080fd5b81019080803590602001909291908035906020019064010000000081111561050357600080fd5b82018360208201111561051557600080fd5b8035906020019184600183028401116401000000008311171561053757600080fd5b91908080601f016020809104026020016040519081016040528093929190818152602001838380828437600081840152601f19601f8201169050808301925050505050505091929192908035906020019064010000000081111561059a57600080fd5b8201836020820111156105ac57600080fd5b803590602001918460018302840111640100000000831117156105ce57600080fd5b91908080601f016020809104026020016040519081016040528093929190818152602001838380828437600081840152601f19601f820116905080830192505050505050509192919290505050611019565b005b61062a61101e565b005b6106986004803603606081101561064257600080fd5b81019080803573ffffffffffffffffffffffffffffffffffffffff169060200190929190803573ffffffffffffffffffffffffffffffffffffffff169060200190929190803590602001909291905050506111e5565b005b6106c6600480360360208110156106b057600080fd5b8101908080359060200190929190505050611206565b6040518082815260200191505060405180910390f35b610708600480360360208110156106f257600080fd5b810190808035906020019092919050505061123e565b604051808273ffffffffffffffffffffffffffffffffffffffff1673ffffffffffffffffffffffffffffffffffffffff16815260200191505060405180910390f35b61078c6004803603602081101561076057600080fd5b81019080803573ffffffffffffffffffffffffffffffffffffffff16906020019092919050505061127b565b6040518082815260200191505060405180910390f35b6107aa6112cb565b005b6107b4611494565b6040518080602001828103825283818151815260200191508051906020019080838360005b838110156107f45780820151818401526020810190506107d9565b50505050905090810190601f1680156108215780820380516001836020036101000a031916815260200191505b509250505060405180910390f35b610837611536565b604051808273ffffffffffffffffffffffffffffffffffffffff1673ffffffffffffffffffffffffffffffffffffffff16815260200191505060405180910390f35b6108c76004803603604081101561088f57600080fd5b81019080803573ffffffffffffffffffffffffffffffffffffffff16906020019092919080351515906020019092919050505061155f565b005b6109cc600480360360808110156108df57600080fd5b81019080803573ffffffffffffffffffffffffffffffffffffffff169060200190929190803573ffffffffffffffffffffffffffffffffffffffff169060200190929190803590602001909291908035906020019064010000000081111561094657600080fd5b82018360208201111561095857600080fd5b8035906020019184600183028401116401000000008311171561097a57600080fd5b91908080601f016020809104026020016040519081016040528093929190818152602001838380828437600081840152601f19601f82011690508083019250505050505050919291929050505061169b565b005b6109fa600480360360208110156109e457600080fd5b81019080803590602001909291905050506116c3565b6040518080602001828103825283818151815260200191508051906020019080838360005b83811015610a3a578082015181840152602081019050610a1f565b50505050905090810190601f168015610a675780820380516001836020036101000a031916815260200191505b509250505060405180910390f35b610a7d61178c565b6040518080602001828103825283818151815260200191508051906020019080838360005b83811015610abd578082015181840152602081019050610aa2565b50505050905090810190601f168015610aea5780820380516001836020036101000a031916815260200191505b509250505060405180910390f35b610b5a60048036036040811015610b0e57600080fd5b81019080803573ffffffffffffffffffffffffffffffffffffffff169060200190929190803573ffffffffffffffffffffffffffffffffffffffff16906020019092919050505061182e565b604051808215151515815260200191505060405180910390f35b610bb660048036036020811015610b8a57600080fd5b81019080803573ffffffffffffffffffffffffffffffffffffffff1690602001909291905050506118c2565b005b600060016000837bffffffffffffffffffffffffffffffffffffffffffffffffffffffff19167bffffffffffffffffffffffffffffffffffffffffffffffffffffffff1916815260200190815260200160002060009054906101000a900460ff169050919050565b6060600f8054600181600116156101000203166002900480601f016020809104026020016040519081016040528092919081815260200182805460018160011615610100020316600290048015610cb85780601f10610c8d57610100808354040283529160200191610cb8565b820191906000526020600020905b815481529060010190602001808311610c9b57829003601f168201915b5050505050905090565b6000610ccd82611a80565b1515610cd857600080fd5b6003600083815260200190815260200160002060009054906101000a900473ffffffffffffffffffffffffffffffffffffffff169050919050565b610d1c8161123e565b73ffffffffffffffffffffffffffffffffffffffff168273ffffffffffffffffffffffffffffffffffffffff1614151515610da2576040517f08c379a00000000000000000000000000000000000000000000000000000000081526004018080602001828103825260298152602001806124976029913960400191505060405180910390fd5b610dab8161123e565b73ffffffffffffffffffffffffffffffffffffffff163373ffffffffffffffffffffffffffffffffffffffff161480610df25750610df1610deb8261123e565b3361182e565b5b1515610e49576040517f08c379a000000000000000000000000000000000000000000000000000000000815260040180806020018281038252602881526020018061246f6028913960400191505060405180910390fd5b816003600083815260200190815260200160002060006101000a81548173ffffffffffffffffffffffffffffffffffffffff021916908373ffffffffffffffffffffffffffffffffffffffff160217905550808273ffffffffffffffffffffffffffffffffffffffff166002600084815260200190815260200160002060009054906101000a900473ffffffffffffffffffffffffffffffffffffffff1673ffffffffffffffffffffffffffffffffffffffff167f8c5be1e5ebec7d5bd14f71427d1e84f3dd0314c0f7b2291e5b200ac8c7c3b92560405160405180910390a45050565b6000600880549050905090565b610f443382611af2565b1515610f4f57600080fd5b610f5a838383611b87565b505050565b610f9e828260006040519080825280601f01601f191660200182016040528015610f985781602001600182028038833980820191505090505b50611019565b5050565b6000610fad8361127b565b82101515610fba57600080fd5b600660008473ffffffffffffffffffffffffffffffffffffffff1673ffffffffffffffffffffffffffffffffffffffff1681526020019081526020016000208281548110151561100657fe5b9060005260206000200154905092915050565b505050565b6000809054906101000a900473ffffffffffffffffffffffffffffffffffffffff1673ffffffffffffffffffffffffffffffffffffffff163373ffffffffffffffffffffffffffffffffffffffff161415156110e2576040517f08c379a000000000000000000000000000000000000000000000000000000000815260040180806020018281038252601c8152602001807f43616c6c6572206973206e6f7420636f6e7472616374206f776e65720000000081525060200191505060405180910390fd5b600060149054906101000a900460ff161515611166576040517f08c379a00000000000000000000000000000000000000000000000000000000081526004018080602001828103825260138152602001807f636f6e7472616374206e6f74207061757365640000000000000000000000000081525060200191505060405180910390fd5b60008060146101000a81548160ff0219169083151502179055507f5db9ee0a495bf2e6ff9c91a7834c1ba4fdd244a5e8aa4e537bd38aeae4b073aa33604051808273ffffffffffffffffffffffffffffffffffffffff1673ffffffffffffffffffffffffffffffffffffffff16815260200191505060405180910390a1565b611201838383602060405190810160405280600081525061169b565b505050565b6000611210610f2d565b8210151561121d57600080fd5b60088281548110151561122c57fe5b90600052602060002001549050919050565b60006002600083815260200190815260200160002060009054906101000a900473ffffffffffffffffffffffffffffffffffffffff169050919050565b60006112c4600460008473ffffffffffffffffffffffffffffffffffffffff1673ffffffffffffffffffffffffffffffffffffffff168152602001908152602001600020611bab565b9050919050565b6000809054906101000a900473ffffffffffffffffffffffffffffffffffffffff1673ffffffffffffffffffffffffffffffffffffffff163373ffffffffffffffffffffffffffffffffffffffff1614151561138f576040517f08c379a000000000000000000000000000000000000000000000000000000000815260040180806020018281038252601c8152602001807f43616c6c6572206973206e6f7420636f6e7472616374206f776e65720000000081525060200191505060405180910390fd5b600060149054906101000a900460ff16151515611414576040517f08c379a000000000000000000000000000000000000000000000000000000000815260040180806020018281038252600f8152602001807f636f6e747261637420706175736564000000000000000000000000000000000081525060200191505060405180910390fd5b6001600060146101000a81548160ff0219169083151502179055507f62e78cea01bee320cd4e420270b5ea74000d11b0c9f74754ebdbfc544b05a25833604051808273ffffffffffffffffffffffffffffffffffffffff1673ffffffffffffffffffffffffffffffffffffffff16815260200191505060405180910390a1565b606060108054600181600116156101000203166002900480601f01602080910402602001604051908101604052809291908181526020018280546001816001161561010002031660029004801561152c5780601f106115015761010080835404028352916020019161152c565b820191906000526020600020905b81548152906001019060200180831161150f57829003601f168201915b5050505050905090565b60008060009054906101000a900473ffffffffffffffffffffffffffffffffffffffff16905090565b3373ffffffffffffffffffffffffffffffffffffffff168273ffffffffffffffffffffffffffffffffffffffff161415151561159a57600080fd5b80600560003373ffffffffffffffffffffffffffffffffffffffff1673ffffffffffffffffffffffffffffffffffffffff16815260200190815260200160002060008473ffffffffffffffffffffffffffffffffffffffff1673ffffffffffffffffffffffffffffffffffffffff16815260200190815260200160002060006101000a81548160ff0219169083151502179055508173ffffffffffffffffffffffffffffffffffffffff163373ffffffffffffffffffffffffffffffffffffffff167f17307eab39ab6107e8899845ad3d59bd9653f200f220920489ca2b5937696c3183604051808215151515815260200191505060405180910390a35050565b6116a6848484610f3a565b6116b284848484611bb9565b15156116bd57600080fd5b50505050565b60606116ce82611a80565b15156116d957600080fd5b601260008381526020019081526020016000208054600181600116156101000203166002900480601f0160208091040260200160405190810160405280929190818152602001828054600181600116156101000203166002900480156117805780601f1061175557610100808354040283529160200191611780565b820191906000526020600020905b81548152906001019060200180831161176357829003601f168201915b50505050509050919050565b606060118054600181600116156101000203166002900480601f0160208091040260200160405190810160405280929190818152602001828054600181600116156101000203166002900480156118245780601f106117f957610100808354040283529160200191611824565b820191906000526020600020905b81548152906001019060200180831161180757829003601f168201915b5050505050905090565b6000600560008473ffffffffffffffffffffffffffffffffffffffff1673ffffffffffffffffffffffffffffffffffffffff16815260200190815260200160002060008373ffffffffffffffffffffffffffffffffffffffff1673ffffffffffffffffffffffffffffffffffffffff16815260200190815260200160002060009054906101000a900460ff16905092915050565b6000809054906101000a900473ffffffffffffffffffffffffffffffffffffffff1673ffffffffffffffffffffffffffffffffffffffff163373ffffffffffffffffffffffffffffffffffffffff16141515611986576040517f08c379a000000000000000000000000000000000000000000000000000000000815260040180806020018281038252601c8152602001807f43616c6c6572206973206e6f7420636f6e7472616374206f776e65720000000081525060200191505060405180910390fd5b600073ffffffffffffffffffffffffffffffffffffffff168173ffffffffffffffffffffffffffffffffffffffff16141515156119c257600080fd5b8073ffffffffffffffffffffffffffffffffffffffff166000809054906101000a900473ffffffffffffffffffffffffffffffffffffffff1673ffffffffffffffffffffffffffffffffffffffff167f8be0079c531659141344cd1fd0a4f28419497f9722a3daafe3b4186f6b6457e060405160405180910390a3806000806101000a81548173ffffffffffffffffffffffffffffffffffffffff021916908373ffffffffffffffffffffffffffffffffffffffff16021790555050565b6000806002600084815260200190815260200160002060009054906101000a900473ffffffffffffffffffffffffffffffffffffffff169050600073ffffffffffffffffffffffffffffffffffffffff168173ffffffffffffffffffffffffffffffffffffffff161415915050919050565b600080611afe8361123e565b90508073ffffffffffffffffffffffffffffffffffffffff168473ffffffffffffffffffffffffffffffffffffffff161480611b6d57508373ffffffffffffffffffffffffffffffffffffffff16611b5584610cc2565b73ffffffffffffffffffffffffffffffffffffffff16145b80611b7e5750611b7d818561182e565b5b91505092915050565b611b92838383611ddc565b611b9c8382612058565b611ba682826121fc565b505050565b600081600001549050919050565b6000611bda8473ffffffffffffffffffffffffffffffffffffffff166122c3565b1515611be95760019050611dd4565b60008473ffffffffffffffffffffffffffffffffffffffff1663150b7a02338887876040518563ffffffff167c0100000000000000000000000000000000000000000000000000000000028152600401808573ffffffffffffffffffffffffffffffffffffffff1673ffffffffffffffffffffffffffffffffffffffff1681526020018473ffffffffffffffffffffffffffffffffffffffff1673ffffffffffffffffffffffffffffffffffffffff16815260200183815260200180602001828103825283818151815260200191508051906020019080838360005b83811015611ce0578082015181840152602081019050611cc5565b50505050905090810190601f168015611d0d5780820380516001836020036101000a031916815260200191505b5095505050505050602060405180830381600087803b158015611d2f57600080fd5b505af1158015611d43573d6000803e3d6000fd5b505050506040513d6020811015611d5957600080fd5b8101908080519060200190929190505050905063150b7a027c0100000000000000000000000000000000000000000000000000000000027bffffffffffffffffffffffffffffffffffffffffffffffffffffffff1916817bffffffffffffffffffffffffffffffffffffffffffffffffffffffff1916149150505b949350505050565b611de58161123e565b73ffffffffffffffffffffffffffffffffffffffff168373ffffffffffffffffffffffffffffffffffffffff16141515611e6a576040517f08c379a000000000000000000000000000000000000000000000000000000000815260040180806020018281038252602c815260200180612443602c913960400191505060405180910390fd5b600073ffffffffffffffffffffffffffffffffffffffff168273ffffffffffffffffffffffffffffffffffffffff1614151515611f0f576040517f08c379a000000000000000000000000000000000000000000000000000000000815260040180806020018281038252600f8152602001807f496e76616c69642061646472657373000000000000000000000000000000000081525060200191505060405180910390fd5b611f18816122d6565b816002600083815260200190815260200160002060006101000a81548173ffffffffffffffffffffffffffffffffffffffff021916908373ffffffffffffffffffffffffffffffffffffffff160217905550611fb1600460008573ffffffffffffffffffffffffffffffffffffffff1673ffffffffffffffffffffffffffffffffffffffff168152602001908152602001600020612396565b611ff8600460008473ffffffffffffffffffffffffffffffffffffffff1673ffffffffffffffffffffffffffffffffffffffff1681526020019081526020016000206123b9565b808273ffffffffffffffffffffffffffffffffffffffff168473ffffffffffffffffffffffffffffffffffffffff167fddf252ad1be2c89b69c2b068fc378daa952ba7f163c4a11628f55a4df523b3ef60405160405180910390a4505050565b60006120b06001600660008673ffffffffffffffffffffffffffffffffffffffff1673ffffffffffffffffffffffffffffffffffffffff168152602001908152602001600020805490506123cf90919063ffffffff16565b905060006007600084815260200190815260200160002054905081811415156121a3576000600660008673ffffffffffffffffffffffffffffffffffffffff1673ffffffffffffffffffffffffffffffffffffffff1681526020019081526020016000208381548110151561212157fe5b9060005260206000200154905080600660008773ffffffffffffffffffffffffffffffffffffffff1673ffffffffffffffffffffffffffffffffffffffff1681526020019081526020016000208381548110151561217b57fe5b9060005260206000200181905550816007600083815260200190815260200160002081905550505b600660008573ffffffffffffffffffffffffffffffffffffffff1673ffffffffffffffffffffffffffffffffffffffff1681526020019081526020016000208054809190600190036121f591906123f1565b5050505050565b600660008373ffffffffffffffffffffffffffffffffffffffff1673ffffffffffffffffffffffffffffffffffffffff168152602001908152602001600020805490506007600083815260200190815260200160002081905550600660008373ffffffffffffffffffffffffffffffffffffffff1673ffffffffffffffffffffffffffffffffffffffff1681526020019081526020016000208190806001815401808255809150509060018203906000526020600020016000909192909190915055505050565b600080823b905060008111915050919050565b600073ffffffffffffffffffffffffffffffffffffffff166003600083815260200190815260200160002060009054906101000a900473ffffffffffffffffffffffffffffffffffffffff1673ffffffffffffffffffffffffffffffffffffffff161415156123935760006003600083815260200190815260200160002060006101000a81548173ffffffffffffffffffffffffffffffffffffffff021916908373ffffffffffffffffffffffffffffffffffffffff1602179055505b50565b6123ae600182600001546123cf90919063ffffffff16565b816000018190555050565b6001816000016000828254019250508190555050565b60008282111515156123e057600080fd5b600082840390508091505092915050565b81548183558181111561241857818360005260206000209182019101612417919061241d565b5b505050565b61243f91905b8082111561243b576000816000905550600101612423565b5090565b9056fe46726f6d206164647265737320697320746865206f776e6572206f662074686520676976656e20746f6b656e73656e646572206d75737420626520746865206f776e6572206f662074686520636f6e7472616374476976656e206164647265737320697320746865206f776e6572206f662074686520746f6b656e4964a165627a7a72305820b625a42c6215ac86ca9d9d3091022e2bbcec578ba5437d97c71b6e84c020fb2b0029",
  "source": "pragma solidity >=0.4.21 <0.6.0;\r\n\r\nimport 'openzeppelin-solidity/contracts/utils/Address.sol';\r\nimport 'openzeppelin-solidity/contracts/drafts/Counters.sol';\r\nimport 'openzeppelin-solidity/contracts/math/SafeMath.sol';\r\nimport 'openzeppelin-solidity/contracts/token/ERC721/IERC721Receiver.sol';\r\nimport \"./Oraclize.sol\";\r\n\r\ncontract Ownable {\r\n  //  TODO's\r\n  //  1) create a private '_owner' variable of type address with a public getter function\r\n  //  2) create an internal constructor that sets the _owner var to the creater of the contract\r\n  //  3) create an 'onlyOwner' modifier that throws if called by any account other than the owner.\r\n  //  4) fill out the transferOwnership function\r\n  //  5) create an event that emits anytime ownerShip is transfered (including in the constructor)\r\n  address private contractOwner;\r\n\r\n  event OwnershipTransferred(address indexed previousOwner, address indexed newOwner);\r\n\r\n  constructor() internal {\r\n    contractOwner = msg.sender;\r\n    emit OwnershipTransferred(address(0), contractOwner);\r\n  }\r\n\r\n  modifier requireContractOwner() {\r\n    require(msg.sender == contractOwner, \"Caller is not contract owner\");\r\n    _;\r\n  }\r\n\r\n  function getCurrentOwner() public view returns(address) {\r\n    return contractOwner;\r\n  }\r\n\r\n  function transferOwnership(address newOwner) public requireContractOwner {\r\n    // TODO add functionality to transfer control of the contract to a newOwner.\r\n    // make sure the new owner is a real address\r\n    require(newOwner != address(0));\r\n    emit OwnershipTransferred(contractOwner, newOwner);\r\n    contractOwner = newOwner;\r\n  }\r\n}\r\n\r\n//  TODO's: Create a Pausable contract that inherits from the Ownable contract\r\n//  1) create a private '_paused' variable of type bool\r\n//  2) create a public setter using the inherited onlyOwner modifier\r\n//  3) create an internal constructor that sets the _paused variable to false\r\n//  4) create 'whenNotPaused' & 'paused' modifier that throws in the appropriate situation\r\n//  5) create a Paused & Unpaused event that emits the address that triggered the event\r\n\r\ncontract Pausable is Ownable {\r\n\r\n  bool private _paused;\r\n\r\n  event Paused(address account);\r\n  event Unpaused(address account);\r\n\r\n  constructor() internal {\r\n    _paused = false;\r\n  }\r\n\r\n  modifier requirePaused() {\r\n    require(_paused, \"contract not paused\");\r\n    _;\r\n  }\r\n\r\n  modifier requireNotPaused() {\r\n    require(!_paused, \"contract paused\");\r\n    _;\r\n  }\r\n\r\n  function pause() public requireContractOwner requireNotPaused {\r\n    _paused = true;\r\n    emit Paused(msg.sender);\r\n  }\r\n\r\n  function unpause() public requireContractOwner requirePaused {\r\n    _paused = false;\r\n    emit Unpaused(msg.sender);\r\n  }\r\n\r\n}\r\n\r\ncontract ERC165 {\r\n  bytes4 private constant _INTERFACE_ID_ERC165 = 0x01ffc9a7;\r\n  /*\r\n    * 0x01ffc9a7 ===\r\n    *     bytes4(keccak256('supportsInterface(bytes4)'))\r\n    */\r\n\r\n  /**\r\n    * @dev a mapping of interface id to whether or not it's supported\r\n  */\r\n  mapping(bytes4 => bool) private _supportedInterfaces;\r\n\r\n  /**\r\n    * @dev A contract implementing SupportsInterfaceWithLookup\r\n    * implement ERC165 itself\r\n  */\r\n  constructor () internal {\r\n    _registerInterface(_INTERFACE_ID_ERC165);\r\n  }\r\n\r\n  /**\r\n    * @dev implement supportsInterface(bytes4) using a lookup table\r\n  */\r\n  function supportsInterface(bytes4 interfaceId) external view returns (bool) {\r\n    return _supportedInterfaces[interfaceId];\r\n  }\r\n\r\n  /**\r\n    * @dev internal method for registering an interface\r\n  */\r\n  function _registerInterface(bytes4 interfaceId) internal {\r\n    require(interfaceId != 0xffffffff);\r\n    _supportedInterfaces[interfaceId] = true;\r\n  }\r\n}\r\n\r\ncontract ERC721 is Pausable, ERC165 {\r\n\r\n  event Transfer(address indexed from, address indexed to, uint256 indexed tokenId);\r\n\r\n  event Approval(address indexed owner, address indexed approved, uint256 indexed tokenId);\r\n\r\n  event ApprovalForAll(address indexed owner, address indexed operator, bool approved);\r\n\r\n  using SafeMath for uint256;\r\n  using Address for address;\r\n  using Counters for Counters.Counter;\r\n\r\n  // Equals to `bytes4(keccak256(\"onERC721Received(address,address,uint256,bytes)\"))`\r\n  // which can be also obtained as `IERC721Receiver(0).onERC721Received.selector`\r\n  bytes4 private constant _ERC721_RECEIVED = 0x150b7a02;\r\n\r\n  // Mapping from token ID to owner\r\n  mapping (uint256 => address) private _tokenOwner;\r\n\r\n  // Mapping from token ID to approved address\r\n  mapping (uint256 => address) private _tokenApprovals;\r\n\r\n  // Mapping from owner to number of owned token\r\n  // IMPORTANT: this mapping uses Counters lib which is used to protect overflow when incrementing/decrementing a uint\r\n  // use the following functions when interacting with Counters: increment(), decrement(), and current() to get the value\r\n  // see: https://github.com/OpenZeppelin/openzeppelin-solidity/blob/master/contracts/drafts/Counters.sol\r\n  mapping (address => Counters.Counter) private _ownedTokensCount;\r\n\r\n  // Mapping from owner to operator approvals\r\n  mapping (address => mapping (address => bool)) private _operatorApprovals;\r\n\r\n  bytes4 private constant _INTERFACE_ID_ERC721 = 0x80ac58cd;\r\n\r\n  constructor () public {\r\n    // register the supported interfaces to conform to ERC721 via ERC165\r\n    _registerInterface(_INTERFACE_ID_ERC721);\r\n  }\r\n\r\n  function balanceOf(address owner) public view returns (uint256) {\r\n    // TODO return the token balance of given address\r\n    // TIP: remember the functions to use for Counters. you can refresh yourself with the link above\r\n    return _ownedTokensCount[owner].current();\r\n  }\r\n\r\n  function ownerOf(uint256 tokenId) public view returns (address) {\r\n    // TODO return the owner of the given tokenId\r\n    return _tokenOwner[tokenId];\r\n  }\r\n\r\n  // @dev Approves another address to transfer the given token ID\r\n  function approve(address to, uint256 tokenId) public {\r\n\r\n    // TODO require the given address to not be the owner of the tokenId\r\n    require (to != ownerOf(tokenId), \"Given address is the owner of the tokenId\");\r\n    // TODO require the msg sender to be the owner of the contract or isApprovedForAll() to be true\r\n    require(msg.sender == ownerOf(tokenId) || isApprovedForAll(ownerOf(tokenId), msg.sender), \"sender must be the owner of the contract\");\r\n    // TODO add 'to' address to token approvals\r\n    _tokenApprovals[tokenId] = to;\r\n    // TODO emit Approval Event\r\n    emit Approval(_tokenOwner[tokenId], to, tokenId);\r\n  }\r\n\r\n  function getApproved(uint256 tokenId) public view returns (address) {\r\n    // TODO return token approval if it exists\r\n    require(_exists(tokenId));\r\n\r\n    return _tokenApprovals[tokenId];\r\n  }\r\n\r\n  /**\r\n    * @dev Sets or unsets the approval of a given operator\r\n    * An operator is allowed to transfer all tokens of the sender on their behalf\r\n    * @param to operator address to set the approval\r\n    * @param approved representing the status of the approval to be set\r\n  */\r\n  function setApprovalForAll(address to, bool approved) public {\r\n    require(to != msg.sender);\r\n    _operatorApprovals[msg.sender][to] = approved;\r\n    emit ApprovalForAll(msg.sender, to, approved);\r\n  }\r\n\r\n  /**\r\n    * @dev Tells whether an operator is approved by a given owner\r\n    * @param owner owner address which you want to query the approval of\r\n    * @param operator operator address which you want to query the approval of\r\n    * @return bool whether the given operator is approved by the given owner\r\n  */\r\n  function isApprovedForAll(address owner, address operator) public view returns (bool) {\r\n    return _operatorApprovals[owner][operator];\r\n  }\r\n\r\n  function transferFrom(address from, address to, uint256 tokenId) public {\r\n    require(_isApprovedOrOwner(msg.sender, tokenId));\r\n\r\n    _transferFrom(from, to, tokenId);\r\n  }\r\n\r\n  function safeTransferFrom(address from, address to, uint256 tokenId) public {\r\n    safeTransferFrom(from, to, tokenId, \"\");\r\n  }\r\n\r\n  function safeTransferFrom(address from, address to, uint256 tokenId, bytes memory _data) public {\r\n    transferFrom(from, to, tokenId);\r\n    require(_checkOnERC721Received(from, to, tokenId, _data));\r\n  }\r\n\r\n  /**\r\n    * @dev Returns whether the specified token exists\r\n    * @param tokenId uint256 ID of the token to query the existence of\r\n    * @return bool whether the token exists\r\n  */\r\n  function _exists(uint256 tokenId) internal view returns (bool) {\r\n    address owner = _tokenOwner[tokenId];\r\n    return owner != address(0);\r\n  }\r\n\r\n  /**\r\n    * @dev Returns whether the given spender can transfer a given token ID\r\n    * @param spender address of the spender to query\r\n    * @param tokenId uint256 ID of the token to be transferred\r\n    * @return bool whether the msg.sender is approved for the given token ID,\r\n    * is an operator of the owner, or is the owner of the token\r\n  */\r\n  function _isApprovedOrOwner(address spender, uint256 tokenId) internal view returns (bool) {\r\n    address owner = ownerOf(tokenId);\r\n    return (spender == owner || getApproved(tokenId) == spender || isApprovedForAll(owner, spender));\r\n  }\r\n\r\n  // @dev Internal function to mint a new token\r\n  // TIP: remember the functions to use for Counters. you can refresh yourself with the link above\r\n  function _mint(address to, uint256 tokenId) internal {\r\n\r\n    // TODO revert if given tokenId already exists or given address is invalid\r\n    require(!_exists(tokenId), \"TokenId already exists\");\r\n    require(to != address(0), \"Address is invalid\");\r\n\r\n    // TODO mint tokenId to given address & increase token count of owner\r\n    _tokenOwner[tokenId] = to;\r\n    _ownedTokensCount[to].increment();\r\n\r\n    // TODO emit Transfer event\r\n    emit Transfer(address(0), to, tokenId);\r\n  }\r\n\r\n  // @dev Internal function to transfer ownership of a given token ID to another address.\r\n  // TIP: remember the functions to use for Counters. you can refresh yourself with the link above\r\n  function _transferFrom(address from, address to, uint256 tokenId) internal {\r\n\r\n    // TODO: require from address is the owner of the given token\r\n    require(from == ownerOf(tokenId), \"From address is the owner of the given token\");\r\n    // TODO: require token is being transfered to valid address\r\n    require(to != address(0), \"Invalid address\");\r\n\r\n    // TODO: clear approval\r\n    _clearApproval(tokenId);\r\n\r\n    // TODO: update token counts & transfer ownership of the token ID\r\n    _tokenOwner[tokenId] = to;\r\n    _ownedTokensCount[from].decrement();\r\n    _ownedTokensCount[to].increment();\r\n\r\n    // TODO: emit correct event\r\n    emit Transfer(from, to, tokenId);\r\n  }\r\n\r\n  /**\r\n    * @dev Internal function to invoke `onERC721Received` on a target address\r\n    * The call is not executed if the target address is not a contract\r\n    * @param from address representing the previous owner of the given token ID\r\n    * @param to target address that will receive the tokens\r\n    * @param tokenId uint256 ID of the token to be transferred\r\n    * @param _data bytes optional data to send along with the call\r\n    * @return bool whether the call correctly returned the expected magic value\r\n  */\r\n  function _checkOnERC721Received(\r\n    address from, \r\n    address to, \r\n    uint256 tokenId, \r\n    bytes memory _data\r\n  ) internal returns (bool) {\r\n      if (!to.isContract()) {\r\n          return true;\r\n      }\r\n\r\n      bytes4 retval = IERC721Receiver(to).onERC721Received(msg.sender, from, tokenId, _data);\r\n      return (retval == _ERC721_RECEIVED);\r\n  }\r\n\r\n  // @dev Private function to clear current approval of a given token ID\r\n  function _clearApproval(uint256 tokenId) private {\r\n    if (_tokenApprovals[tokenId] != address(0)) {\r\n        _tokenApprovals[tokenId] = address(0);\r\n    }\r\n  }\r\n}\r\n\r\ncontract ERC721Enumerable is ERC165, ERC721 {\r\n  // Mapping from owner to list of owned token IDs\r\n  mapping(address => uint256[]) private _ownedTokens;\r\n\r\n  // Mapping from token ID to index of the owner tokens list\r\n  mapping(uint256 => uint256) private _ownedTokensIndex;\r\n\r\n  // Array with all token ids, used for enumeration\r\n  uint256[] private _allTokens;\r\n\r\n  // Mapping from token id to position in the allTokens array\r\n  mapping(uint256 => uint256) private _allTokensIndex;\r\n\r\n  bytes4 private constant _INTERFACE_ID_ERC721_ENUMERABLE = 0x780e9d63;\r\n  /*\r\n    * 0x780e9d63 ===\r\n    *     bytes4(keccak256('totalSupply()')) ^\r\n    *     bytes4(keccak256('tokenOfOwnerByIndex(address,uint256)')) ^\r\n    *     bytes4(keccak256('tokenByIndex(uint256)'))\r\n  */\r\n\r\n  /**\r\n    * @dev Constructor function\r\n  */\r\n  constructor () public {\r\n    // register the supported interface to conform to ERC721Enumerable via ERC165\r\n    _registerInterface(_INTERFACE_ID_ERC721_ENUMERABLE);\r\n  }\r\n\r\n  /**\r\n    * @dev Gets the token ID at a given index of the tokens list of the requested owner\r\n    * @param owner address owning the tokens list to be accessed\r\n    * @param index uint256 representing the index to be accessed of the requested tokens list\r\n    * @return uint256 token ID at the given index of the tokens list owned by the requested address\r\n  */\r\n  function tokenOfOwnerByIndex(address owner, uint256 index) public view returns (uint256) {\r\n    require(index < balanceOf(owner));\r\n    return _ownedTokens[owner][index];\r\n  }\r\n\r\n  /**\r\n    * @dev Gets the total amount of tokens stored by the contract\r\n    * @return uint256 representing the total amount of tokens\r\n  */\r\n  function totalSupply() public view returns (uint256) {\r\n    return _allTokens.length;\r\n  }\r\n\r\n  /**\r\n    * @dev Gets the token ID at a given index of all the tokens in this contract\r\n    * Reverts if the index is greater or equal to the total number of tokens\r\n    * @param index uint256 representing the index to be accessed of the tokens list\r\n    * @return uint256 token ID at the given index of the tokens list\r\n  */\r\n  function tokenByIndex(uint256 index) public view returns (uint256) {\r\n    require(index < totalSupply());\r\n    return _allTokens[index];\r\n  }\r\n\r\n  /**\r\n    * @dev Internal function to transfer ownership of a given token ID to another address.\r\n    * As opposed to transferFrom, this imposes no restrictions on msg.sender.\r\n    * @param from current owner of the token\r\n    * @param to address to receive the ownership of the given token ID\r\n    * @param tokenId uint256 ID of the token to be transferred\r\n  */\r\n  function _transferFrom(address from, address to, uint256 tokenId) internal {\r\n    super._transferFrom(from, to, tokenId);\r\n\r\n    _removeTokenFromOwnerEnumeration(from, tokenId);\r\n\r\n    _addTokenToOwnerEnumeration(to, tokenId);\r\n  }\r\n\r\n  /**\r\n    * @dev Internal function to mint a new token\r\n    * Reverts if the given token ID already exists\r\n    * @param to address the beneficiary that will own the minted token\r\n    * @param tokenId uint256 ID of the token to be minted\r\n  */\r\n  function _mint(address to, uint256 tokenId) internal {\r\n    super._mint(to, tokenId);\r\n\r\n    _addTokenToOwnerEnumeration(to, tokenId);\r\n\r\n    _addTokenToAllTokensEnumeration(tokenId);\r\n  }\r\n\r\n  /**\r\n    * @dev Gets the list of token IDs of the requested owner\r\n    * @param owner address owning the tokens\r\n    * @return uint256[] List of token IDs owned by the requested address\r\n  */\r\n  function _tokensOfOwner(address owner) internal view returns (uint256[] storage) {\r\n    return _ownedTokens[owner];\r\n  }\r\n\r\n  /**\r\n    * @dev Private function to add a token to this extension's ownership-tracking data structures.\r\n    * @param to address representing the new owner of the given token ID\r\n    * @param tokenId uint256 ID of the token to be added to the tokens list of the given address\r\n  */\r\n  function _addTokenToOwnerEnumeration(address to, uint256 tokenId) private {\r\n    _ownedTokensIndex[tokenId] = _ownedTokens[to].length;\r\n    _ownedTokens[to].push(tokenId);\r\n  }\r\n\r\n  /**\r\n    * @dev Private function to add a token to this extension's token tracking data structures.\r\n    * @param tokenId uint256 ID of the token to be added to the tokens list\r\n  */\r\n  function _addTokenToAllTokensEnumeration(uint256 tokenId) private {\r\n    _allTokensIndex[tokenId] = _allTokens.length;\r\n    _allTokens.push(tokenId);\r\n  }\r\n\r\n  /**\r\n    * @dev Private function to remove a token from this extension's ownership-tracking data structures. Note that\r\n    * while the token is not assigned a new owner, the _ownedTokensIndex mapping is _not_ updated: this allows for\r\n    * gas optimizations e.g. when performing a transfer operation (avoiding double writes).\r\n    * This has O(1) time complexity, but alters the order of the _ownedTokens array.\r\n    * @param from address representing the previous owner of the given token ID\r\n    * @param tokenId uint256 ID of the token to be removed from the tokens list of the given address\r\n  */\r\n  function _removeTokenFromOwnerEnumeration(address from, uint256 tokenId) private {\r\n    // To prevent a gap in from's tokens array, we store the last token in the index of the token to delete, and\r\n    // then delete the last slot (swap and pop).\r\n\r\n    uint256 lastTokenIndex = _ownedTokens[from].length.sub(1);\r\n    uint256 tokenIndex = _ownedTokensIndex[tokenId];\r\n\r\n    // When the token to delete is the last token, the swap operation is unnecessary\r\n    if (tokenIndex != lastTokenIndex) {\r\n        uint256 lastTokenId = _ownedTokens[from][lastTokenIndex];\r\n\r\n        _ownedTokens[from][tokenIndex] = lastTokenId; // Move the last token to the slot of the to-delete token\r\n        _ownedTokensIndex[lastTokenId] = tokenIndex; // Update the moved token's index\r\n    }\r\n\r\n    // This also deletes the contents at the last position of the array\r\n    _ownedTokens[from].length--;\r\n\r\n    // Note that _ownedTokensIndex[tokenId] hasn't been cleared: it still points to the old slot (now occupied by\r\n    // lastTokenId, or just over the end of the array if the token was the last one).\r\n  }\r\n\r\n  /**\r\n    * @dev Private function to remove a token from this extension's token tracking data structures.\r\n    * This has O(1) time complexity, but alters the order of the _allTokens array.\r\n    * @param tokenId uint256 ID of the token to be removed from the tokens list\r\n  */\r\n  function _removeTokenFromAllTokensEnumeration(uint256 tokenId) private {\r\n    // To prevent a gap in the tokens array, we store the last token in the index of the token to delete, and\r\n    // then delete the last slot (swap and pop).\r\n\r\n    uint256 lastTokenIndex = _allTokens.length.sub(1);\r\n    uint256 tokenIndex = _allTokensIndex[tokenId];\r\n\r\n    // When the token to delete is the last token, the swap operation is unnecessary. However, since this occurs so\r\n    // rarely (when the last minted token is burnt) that we still do the swap here to avoid the gas cost of adding\r\n    // an 'if' statement (like in _removeTokenFromOwnerEnumeration)\r\n    uint256 lastTokenId = _allTokens[lastTokenIndex];\r\n\r\n    _allTokens[tokenIndex] = lastTokenId; // Move the last token to the slot of the to-delete token\r\n    _allTokensIndex[lastTokenId] = tokenIndex; // Update the moved token's index\r\n\r\n    // This also deletes the contents at the last position of the array\r\n    _allTokens.length--;\r\n    _allTokensIndex[tokenId] = 0;\r\n  }\r\n}\r\n\r\ncontract ERC721Metadata is ERC721Enumerable, usingOraclize {\r\n\r\n  // TODO: Create private vars for token _name, _symbol, and _baseTokenURI (string)\r\n  string private _name;\r\n  string private _symbol;\r\n  string private _baseTokenURI;\r\n\r\n  // TODO: create private mapping of tokenId's to token uri's called '_tokenURIs'\r\n  mapping(uint256 => string) private _tokenURIs;\r\n\r\n  bytes4 private constant _INTERFACE_ID_ERC721_METADATA = 0x5b5e139f;\r\n  /*\r\n    * 0x5b5e139f ===\r\n    *     bytes4(keccak256('name()')) ^\r\n    *     bytes4(keccak256('symbol()')) ^\r\n    *     bytes4(keccak256('tokenURI(uint256)'))\r\n  */\r\n\r\n\r\n  constructor (string memory name, string memory symbol, string memory baseTokenURI) public {\r\n    // TODO: set instance var values\r\n    _name = name;\r\n    _symbol = symbol;\r\n    _baseTokenURI = baseTokenURI;\r\n\r\n    _registerInterface(_INTERFACE_ID_ERC721_METADATA);\r\n  }\r\n\r\n  // TODO: create external getter functions for name, symbol, and baseTokenURI\r\n  function name() external view returns(string memory) {\r\n    return _name;\r\n  }\r\n\r\n  function symbol() external view returns(string memory) {\r\n    return _symbol;\r\n  }\r\n\r\n  function baseTokenURI() external view returns(string memory) {\r\n    return _baseTokenURI;\r\n  }\r\n\r\n  function tokenURI(uint256 tokenId) external view returns (string memory) {\r\n    require(_exists(tokenId));\r\n    return _tokenURIs[tokenId];\r\n  }\r\n\r\n\r\n  // TODO: Create an internal function to set the tokenURI of a specified tokenId\r\n  // It should be the _baseTokenURI + the tokenId in string form\r\n  // TIP #1: use strConcat() from the imported oraclizeAPI lib to set the complete token URI\r\n  // TIP #2: you can also use uint2str() to convert a uint to a string\r\n  // see https://github.com/oraclize/ethereum-api/blob/master/oraclizeAPI_0.5.sol for strConcat()\r\n  // require the token exists before setting\r\n  function setTokenURI(uint256 tokenId) internal {\r\n    require(_exists(tokenId), \"token not exist\");\r\n\r\n    _tokenURIs[tokenId] = strConcat(_baseTokenURI, uint2str(tokenId));\r\n  }\r\n}\r\n\r\n//  TODO's: Create CustomERC721Token contract that inherits from the ERC721Metadata contract. You can name this contract as you please\r\n//  1) Pass in appropriate values for the inherited ERC721Metadata contract\r\n//      - make the base token uri: https://s3-us-west-2.amazonaws.com/udacity-blockchain/capstone/\r\n//  2) create a public mint() that does the following:\r\n//      -can only be executed by the contract owner\r\n//      -takes in a 'to' address, tokenId, and tokenURI as parameters\r\n//      -returns a true boolean upon completion of the function\r\n//      -calls the superclass mint and setTokenURI functions\r\ncontract EbraContract is ERC721Metadata (\r\n    \"Transfer Real Estate\",\r\n    \"TRE\",\r\n    \"https://s3-us-west-2.amazonaws.com/udacity-blockchain/capstone/\"\r\n) {\r\n\r\n    function mint(address to, uint256 tokenId) public requireContractOwner returns(bool) {\r\n      super._mint(to, tokenId);\r\n      super.setTokenURI(tokenId);\r\n      return true;\r\n    }\r\n}\r\n\r\n\r\n",
  "sourcePath": "C:\\Users\\Husam\\Documents\\Ebra\\workspace\\github-projects\\real-estate-marketplace\\eth-contracts\\contracts\\ERC721Mintable.sol",
  "compiler": {
    "name": "solc",
    "version": "0.5.2+commit.1df8f40c.Emscripten.clang"
  },
  "schemaVersion": "3.0.6",
  "updatedAt": "2019-04-11T11:59:54.582Z",
  "devdoc": {
    "methods": {
      "isApprovedForAll(address,address)": {
        "details": "Tells whether an operator is approved by a given owner\r",
        "params": {
          "operator": "operator address which you want to query the approval of\r",
          "owner": "owner address which you want to query the approval of\r"
        },
        "return": "bool whether the given operator is approved by the given owner\r"
      },
      "setApprovalForAll(address,bool)": {
        "details": "Sets or unsets the approval of a given operator\r An operator is allowed to transfer all tokens of the sender on their behalf\r",
        "params": {
          "approved": "representing the status of the approval to be set\r",
          "to": "operator address to set the approval\r"
        }
      },
      "supportsInterface(bytes4)": {
        "details": "implement supportsInterface(bytes4) using a lookup table\r"
      },
      "tokenByIndex(uint256)": {
        "details": "Gets the token ID at a given index of all the tokens in this contract\r Reverts if the index is greater or equal to the total number of tokens\r",
        "params": {
          "index": "uint256 representing the index to be accessed of the tokens list\r"
        },
        "return": "uint256 token ID at the given index of the tokens list\r"
      },
      "tokenOfOwnerByIndex(address,uint256)": {
        "details": "Gets the token ID at a given index of the tokens list of the requested owner\r",
        "params": {
          "index": "uint256 representing the index to be accessed of the requested tokens list\r",
          "owner": "address owning the tokens list to be accessed\r"
        },
        "return": "uint256 token ID at the given index of the tokens list owned by the requested address\r"
      },
      "totalSupply()": {
        "details": "Gets the total amount of tokens stored by the contract\r",
        "return": "uint256 representing the total amount of tokens\r"
      }
    }
  },
  "userdoc": {
    "methods": {}
  }
}